{
  "contractName": "StorageContract",
  "abi": [
    {
      "inputs": [
        {
          "internalType": "address",
          "name": "",
          "type": "address"
        }
      ],
      "name": "people",
      "outputs": [
        {
          "internalType": "string",
          "name": "name",
          "type": "string"
        },
        {
          "internalType": "uint256",
          "name": "age",
          "type": "uint256"
        }
      ],
      "stateMutability": "view",
      "type": "function",
      "constant": true
    },
    {
      "inputs": [
        {
          "internalType": "uint256",
          "name": "",
          "type": "uint256"
        }
      ],
      "name": "peopleAddresses",
      "outputs": [
        {
          "internalType": "address",
          "name": "",
          "type": "address"
        }
      ],
      "stateMutability": "view",
      "type": "function",
      "constant": true
    },
    {
      "inputs": [
        {
          "internalType": "string",
          "name": "_name",
          "type": "string"
        },
        {
          "internalType": "uint256",
          "name": "_age",
          "type": "uint256"
        }
      ],
      "name": "setData",
      "outputs": [],
      "stateMutability": "nonpayable",
      "type": "function"
    },
    {
      "inputs": [
        {
          "internalType": "address",
          "name": "_adress",
          "type": "address"
        }
      ],
      "name": "getPersonData",
      "outputs": [
        {
          "internalType": "string",
          "name": "",
          "type": "string"
        },
        {
          "internalType": "uint256",
          "name": "",
          "type": "uint256"
        }
      ],
      "stateMutability": "view",
      "type": "function",
      "constant": true
    },
    {
      "inputs": [],
      "name": "getPeopleAddresses",
      "outputs": [
        {
          "internalType": "address[]",
          "name": "",
          "type": "address[]"
        }
      ],
      "stateMutability": "view",
      "type": "function",
      "constant": true
    }
  ],
  "bytecode": "0x608060405234801561001057600080fd5b50610c20806100206000396000f3fe608060405234801561001057600080fd5b50600436106100575760003560e01c806307de97351461005c5780633f220a6f1461008d5780637b876abf146100bd578063af22068e146100ee578063b2a96af11461010a575b600080fd5b61007660048036038101906100719190610512565b610128565b6040516100849291906105e8565b60405180910390f35b6100a760048036038101906100a29190610644565b6101d4565b6040516100b49190610680565b60405180910390f35b6100d760048036038101906100d29190610512565b610213565b6040516100e59291906105e8565b60405180910390f35b610108600480360381019061010391906107d0565b61032f565b005b610112610412565b60405161011f91906108ea565b60405180910390f35b600060205280600052604060002060009150905080600001805461014b9061093b565b80601f01602080910402602001604051908101604052809291908181526020018280546101779061093b565b80156101c45780601f10610199576101008083540402835291602001916101c4565b820191906000526020600020905b8154815290600101906020018083116101a757829003601f168201915b5050505050908060010154905082565b600181815481106101e457600080fd5b906000526020600020016000915054906101000a900473ffffffffffffffffffffffffffffffffffffffff1681565b606060008060008473ffffffffffffffffffffffffffffffffffffffff1673ffffffffffffffffffffffffffffffffffffffff1681526020019081526020016000206000016000808573ffffffffffffffffffffffffffffffffffffffff1673ffffffffffffffffffffffffffffffffffffffff168152602001908152602001600020600101548180546102a69061093b565b80601f01602080910402602001604051908101604052809291908181526020018280546102d29061093b565b801561031f5780601f106102f45761010080835404028352916020019161031f565b820191906000526020600020905b81548152906001019060200180831161030257829003601f168201915b5050505050915091509150915091565b60006040518060400160405280848152602001838152509050806000803373ffffffffffffffffffffffffffffffffffffffff1673ffffffffffffffffffffffffffffffffffffffff168152602001908152602001600020600082015181600001908161039c9190610b18565b50602082015181600101559050506001339080600181540180825580915050600190039060005260206000200160009091909190916101000a81548173ffffffffffffffffffffffffffffffffffffffff021916908373ffffffffffffffffffffffffffffffffffffffff160217905550505050565b6060600180548060200260200160405190810160405280929190818152602001828054801561049657602002820191906000526020600020905b8160009054906101000a900473ffffffffffffffffffffffffffffffffffffffff1673ffffffffffffffffffffffffffffffffffffffff168152602001906001019080831161044c575b5050505050905090565b6000604051905090565b600080fd5b600080fd5b600073ffffffffffffffffffffffffffffffffffffffff82169050919050565b60006104df826104b4565b9050919050565b6104ef816104d4565b81146104fa57600080fd5b50565b60008135905061050c816104e6565b92915050565b600060208284031215610528576105276104aa565b5b6000610536848285016104fd565b91505092915050565b600081519050919050565b600082825260208201905092915050565b60005b8381101561057957808201518184015260208101905061055e565b60008484015250505050565b6000601f19601f8301169050919050565b60006105a18261053f565b6105ab818561054a565b93506105bb81856020860161055b565b6105c481610585565b840191505092915050565b6000819050919050565b6105e2816105cf565b82525050565b600060408201905081810360008301526106028185610596565b905061061160208301846105d9565b9392505050565b610621816105cf565b811461062c57600080fd5b50565b60008135905061063e81610618565b92915050565b60006020828403121561065a576106596104aa565b5b60006106688482850161062f565b91505092915050565b61067a816104d4565b82525050565b60006020820190506106956000830184610671565b92915050565b600080fd5b600080fd5b7f4e487b7100000000000000000000000000000000000000000000000000000000600052604160045260246000fd5b6106dd82610585565b810181811067ffffffffffffffff821117156106fc576106fb6106a5565b5b80604052505050565b600061070f6104a0565b905061071b82826106d4565b919050565b600067ffffffffffffffff82111561073b5761073a6106a5565b5b61074482610585565b9050602081019050919050565b82818337600083830152505050565b600061077361076e84610720565b610705565b90508281526020810184848401111561078f5761078e6106a0565b5b61079a848285610751565b509392505050565b600082601f8301126107b7576107b661069b565b5b81356107c7848260208601610760565b91505092915050565b600080604083850312156107e7576107e66104aa565b5b600083013567ffffffffffffffff811115610805576108046104af565b5b610811858286016107a2565b92505060206108228582860161062f565b9150509250929050565b600081519050919050565b600082825260208201905092915050565b6000819050602082019050919050565b610861816104d4565b82525050565b60006108738383610858565b60208301905092915050565b6000602082019050919050565b60006108978261082c565b6108a18185610837565b93506108ac83610848565b8060005b838110156108dd5781516108c48882610867565b97506108cf8361087f565b9250506001810190506108b0565b5085935050505092915050565b60006020820190508181036000830152610904818461088c565b905092915050565b7f4e487b7100000000000000000000000000000000000000000000000000000000600052602260045260246000fd5b6000600282049050600182168061095357607f821691505b6020821081036109665761096561090c565b5b50919050565b60008190508160005260206000209050919050565b60006020601f8301049050919050565b600082821b905092915050565b6000600883026109ce7fffffffffffffffffffffffffffffffffffffffffffffffffffffffffffffffff82610991565b6109d88683610991565b95508019841693508086168417925050509392505050565b6000819050919050565b6000610a15610a10610a0b846105cf565b6109f0565b6105cf565b9050919050565b6000819050919050565b610a2f836109fa565b610a43610a3b82610a1c565b84845461099e565b825550505050565b600090565b610a58610a4b565b610a63818484610a26565b505050565b5b81811015610a8757610a7c600082610a50565b600181019050610a69565b5050565b601f821115610acc57610a9d8161096c565b610aa684610981565b81016020851015610ab5578190505b610ac9610ac185610981565b830182610a68565b50505b505050565b600082821c905092915050565b6000610aef60001984600802610ad1565b1980831691505092915050565b6000610b088383610ade565b9150826002028217905092915050565b610b218261053f565b67ffffffffffffffff811115610b3a57610b396106a5565b5b610b44825461093b565b610b4f828285610a8b565b600060209050601f831160018114610b825760008415610b70578287015190505b610b7a8582610afc565b865550610be2565b601f198416610b908661096c565b60005b82811015610bb857848901518255600182019150602085019450602081019050610b93565b86831015610bd55784890151610bd1601f891682610ade565b8355505b6001600288020188555050505b50505050505056fea26469706673582212200a65ce40ecc61d72fb0b6c38fbdc1d30ae0f49f2cf43baf358481c2df4f2764b64736f6c63430008110033",
  "immutableReferences": {},
  "source": "// SPDX-License-Identifier: GPL-3.0\r\n\r\npragma solidity >=0.7.0 <0.9.0;\r\n\r\ncontract StorageContract {\r\n    struct Person {\r\n        string name;\r\n        uint age;\r\n    }\r\n\r\n    mapping(address => Person) public people;\r\n    address[] public peopleAddresses;\r\n\r\n    function setData(string memory _name, uint _age) public {\r\n        Person memory newPerson = Person({\r\n        name : _name,\r\n        age : _age\r\n        });\r\n\r\n        people[msg.sender] = newPerson;\r\n        peopleAddresses.push(msg.sender);\r\n    }\r\n\r\n    function getPersonData(address _adress) public view returns (string memory, uint) {\r\n        return (\r\n        people[_adress].name,\r\n        people[_adress].age\r\n        );\r\n    }\r\n\r\n    function getPeopleAddresses() public view returns (address[] memory) {\r\n        return peopleAddresses;\r\n    }\r\n\r\n}\r\n\r\n",
  "sourcePath": "C:\\Users\\allth\\OneDrive\\ \\projects\\dapp\\contracts\\StorageContract.sol",
  "compiler": {
    "name": "solc",
    "version": "0.8.17+commit.8df45f5f.Emscripten.clang"
  },
  "schemaVersion": "3.4.10",
  "updatedAt": "2022-11-03T12:49:40.684Z",
  "networkType": "ethereum",
  "devdoc": {
    "kind": "dev",
    "methods": {},
    "version": 1
  },
  "userdoc": {
    "kind": "user",
    "methods": {},
    "version": 1
  }
}